:020000040000FA
:10000000FC5F0020DD010000050200000702000087
:10001000090200000D0200001102000000000000B3
:1000200000000000000000000000000015020000B9
:100030001902000000000000BF2D0300852C030002
:100040008D2C03008F2C0300912C0300932C0300B4
:10005000952C0300972C0300992C03009B2C030084
:100060009D2C03009F2C0300A12C0300A32C030054
:10007000A52C0300A72C0300A92C030023020000D9
:10008000AB2C0300AD2C0300AF2C0300B12C0300FC
:10009000B32C0300FB2C030023020000230200000A
:1000A000FD2C0300FF2C0300012D0300032D030092
:1000B000052D0300072D0300092D03000B2D030060
:1000C0000D2D03000F2D030023020000230200006A
:1000D000112D0300132D0300152D03003D2D0300EA
:1000E000652D03008D2D030023020000B52D0300B4
:1000F000230200002302000023020000230200006C
:1001000000F002F800F05AF80AA090E8000C8244CF
:100110008344AAF10107DA4501D100F04FF8AFF2AC
:10012000090EBAE80F0013F0010F18BFFB1A43F0D5
:100130000103184754B2030074B203000A444FF09D
:10014000000C10F8013B13F0070408BF10F8014B36
:100150001D1108BF10F8015B641E05D010F8016B7B
:10016000641E01F8016BF9D113F0080F1EBF10F8DF
:10017000014BAD1C0C1B09D16D1E58BF01F801CB02
:10018000FAD505E014F8016B01F8016B6D1EF9D585
:100190009142D6D37047000000230024002500269A
:1001A000103A28BF78C1FBD8520728BF30C148BFDA
:1001B0000B6070471FB51FBD10B510BDDFF80CD028
:1001C000FFF7F8FF31F092FF32F013FFFC5F0020E1
:1001D00003B4FFF7F1FF03BC32F012FF4FF0804190
:1001E0004FF0490088614FF003000864104948F659
:1001F000DE10086048F26D0088600E480047042059
:1002000000680047FBE7FAE7F9E7FEE7F7E7FEE7F4
:10021000F5E7FEE7F3E7FEE7F1E7FEE7EFE7FEE7E6
:10022000FEE7FEE704480549034A054B7047000016
:100230000004004001010000A01B0020A04B002092
:10024000A01B002030B54FF4004444600024394D19
:100250002C6041F400441C434460026030BD002126
:10026000016044F2FF014160704708B501680091E8
:10027000009921F480710091009941F0A001009152
:100280000099016008BD014688680009704743680D
:1002900023F480534360036843F02003036012B1EA
:1002A00043680B43436070472DE9F04180460C469C
:1002B000072C05D820480768254605F5407612E04A
:1002C0000D2C06D81D480768A4F1080504F55276E0
:1002D00009E00F2C05D818480768254605F5407633
:1002E00001E0BDE8F08132462946384600F052FA76
:1002F00003222946384600F060FA2946384600F0C5
:1003000073FA00BFEDE701680160704701460948D4
:10031000006820B90120074A106000207047086873
:1003200000F48070B0F5807F01D10020F6E7012055
:10033000F4E70000000000204C35030060350300A6
:1003400010B51848006800F0E5F91748006800F09B
:10035000E1F91648006800F0DDF91548006800F082
:10036000D9F91448006800F0D5F91348006800F086
:10037000D1F910BD704701228A408260704701F1B7
:100380001002012393408360704710B50246506805
:1003900001248C4000EA04030BB1012010BD0020B1
:1003A000FCE700004C3503005035030054350300D2
:1003B000583503005C350300603503000020411E02
:1003C000D04A1268C2F88010421ECE490968C1F8AE
:1003D0008420411ECB4A1268C2F88011421EC949CE
:1003E0000968C1F8842100BF08E00022C5490968F6
:1003F00001F5407141F82020411CC8B20C28F4D30B
:1004000070474FF02060C049096848600020BE492D
:1004100009688860BD48BC490968C8600020BA49BD
:1004200009680861B84909684861B749096888617D
:10043000B5490968C861B44909680862B2490968E0
:100440004862401EB0490968086370470146AE4AD9
:100450001268D0684FF6FF02104040EA0120AB4A14
:100460000243A94B1B68DA6070470021017041709C
:100470008170C1707047C17891B142780378A14909
:10048000096801F54071CA54017801F01F02012189
:100490009140027852119B4B1B6843F822100BE0ED
:1004A000017801F01F020121914002785311954A11
:1004B0001268803242F82310704730B501460020A0
:1004C00001F01F05012404FA05F24D118D4C24683A
:1004D00004F5807454F82530134201D0012000E067
:1004E000002030BD884800684068C0F3093070477C
:1004F00085490968C1F80002704700F01F02012118
:10050000914043117F4A126802F5C07242F82310ED
:1005100070477D4800684068C0F30800704730B5F8
:100520000146002001F01F05012404FA05F24D11D7
:10053000744C246804F5007454F82530134201D03B
:10054000012000E0002030BD714A0A4002436E4B9A
:100550001B689A6070476D48001D6B490968C86048
:1005600070476A48401C68490968C860704719B1FB
:10057000654A1268106106E0634A12681269824394
:10058000614B1B681A61704710B5002200F01F0410
:10059000012303FA04F239B15B4B1B685B6A134316
:1005A000594C2468636206E0574B1B685B6A9343AF
:1005B000554C2468636210BD70B503460C46002597
:1005C000FF210020504E3668F66806F4E066C6F556
:1005D000E066300AC0F10405C14004FA05F002EA01
:1005E00001063043000103F0C005AD09C3F301214A
:1005F000CE00B04070BD10B502460020002300219F
:10060000910A01F00F01012404FA01F13E4C246823
:10061000646A04EA01038B4201D1012000E000205A
:1006200010BD002100F01F01374A126852680123F3
:100630008B401A43344B1B685A60704710B5002139
:1006400000F01F01304A126852684B1E01249C4082
:1006500022432D4B1B685A6010BD10B50246002086
:1006600000230021C2F38331012404FA01F1264C56
:100670002468646A04EA01038B4201D1012000E08E
:10068000002010BD014600201F4A1268106B704701
:10069000014600200022C1F3805270471A490968C0
:1006A00009690143184A12681161704716490968BF
:1006B00009698143144A1268116170471249096837
:1006C00049690143104A1268516170470E4909682F
:1006D000496981430C4A1268516170470A490968A7
:1006E000C9680143094A1143074A1268D16070473B
:1006F00005490968C9688143044A1143024A1268DE
:10070000D160704700360300043603000000FA058C
:1007100080FFFF1F0CB550490968884239D04F4906
:100720000968884205D14E4901604FF0B0414160EF
:100730002FE04C490968884217D10168019141684E
:100740000091494A019911400191019941F4A02178
:100750000191009911400091009941F410310091EC
:10076000019901600099416013E04049096888429D
:1007700004D13F4901603F4941600AE03E490968B0
:10078000884206D03D490968884202D100210160B3
:1007900041600CBD78B54B000568009503259D4070
:1007A000009EAE430096C2F3032404FA03F5009EB4
:1007B00035430095009D056078BD38B54B00446811
:1007C000009403249C40009DA543009502FA03F485
:1007D000009D2C430094009C446038BD8268012336
:1007E0008B401A4382607047826801238B409A4392
:1007F00082607047F0B50C46610007694FF0030C4A
:100800000CFA01FC27EA0C070761D0F818C003278F
:100810008F402CEA070CC0F818C003278F404761AF
:10082000B3B107694FF0030C0CFA01FC27EA0C0581
:10083000D0F818C003278F402CEA070602F0030700
:100840008F403D43C2F301178F403E4386610561EF
:10085000F0BD4169416170474C35030050350300DC
:100860000000505554350300FFF3F0FF58350300E6
:100870000100550500002A025C35030060350300C5
:1008800089498162016B41F0A00101630321C163C9
:100890007047704708B5854A11680A680092009A47
:1008A00022F470220092009A42F4A0220092009A50
:1008B0000A60AA22026302E040F202224263426B13
:1008C00012F0010FF8D008BD826A0A4382627047B5
:1008D000826A8A4382627047426A0A434262704770
:1008E000426A8A43426270470CB571490968496A95
:1008F00000914FF000416E4A12685162002101914F
:1009000002E00199491C019101990A29F9D3684A29
:100910000099126851620CBD18B543680093009BA2
:1009200023F00703009342EA0103009C2343009352
:10093000009B436018BD0146486800F07000704796
:10094000014648697047704718B502460020136990
:100950000093009B13F0020F01D040F00400009BB5
:1009600013F0010F01D040F00200009B13F0040FC0
:1009700001D040F00100009B23F00703009340EA00
:100980000103009C23430093009B136118BD08B52D
:100990000246002013690093009B13F0020F01D060
:1009A00040F00400009B13F0010F01D040F0020062
:1009B000009B13F0040F01D040F00100009B23F0D6
:1009C00007030093009B03430093009B8B4300931A
:1009D000009B136108BD0146C8697047C2698A431C
:1009E000C261704782690A438261704782698A43A3
:1009F0008261704730B51346026B4D000324AC4052
:100A0000A2434C0003FA04F42243026330BDC26BDC
:100A100022F003020A43C2637047C26B22F44072A1
:100A20000A43C2637047C26B22F480620A43C26306
:100A30007047C36B23F030030B431343C36370470A
:100A400010B5046D44F480440465046D24F400443E
:100A50000465046D44F400540465046D6FF30804E8
:100A60000C4314431C430465046D44F400440465C2
:100A700000BF046D14F4805FFBD010BD016D21F444
:100A800000410165016D21F4804101657047826874
:100A900022F010020A4382607047436C23F01F0368
:100AA0000B43134343647047F801FF135C350300A5
:100AB0004435030041F400420260704700210160A8
:100AC00070477047704778B5059C05680095009D94
:100AD00025F0080500950AB1082500E00025009ED4
:100AE000354300958360C46000254560009D056026
:100AF00078BD01460120704701460120704701463C
:100B000001207047036823F480730360036843F493
:100B1000805303601AB1036843F480730360704725
:100B2000016841F00101016070470A46016821F047
:100B30000901012A01D1082300E0002319430160C3
:100B40007047026822F0E002026002680A43026015
:100B500070477047016801607047000040B92F4935
:100B60000968096821F004012C4A1268116009E043
:100B7000012807D129490968096841F00401274A79
:100B8000126811607047254909684860704718B5B8
:100B9000224B1B681B6823F00203204C246823604F
:100BA0001E4B1B681B6800934FF000731C4C24689D
:100BB00063603AB1194B1B681B6843F00203174C82
:100BC0002468236018BD15480068006840F00100E3
:100BD00012490968086070470020104909680860D8
:100BE0000E49096848600D49096888604FF0007037
:100BF0000B4909684860704708480068806820F021
:100C00007F407047002005490968886070470348A5
:100C10000068006800F4803070470000FC35030075
:100C20000436030000214160704702214160704793
:100C30001CB5044620214A480068FFF745FE4021C4
:100C400047480068FFF740FE802145480068FFF7ED
:100C50003BFE202142480068FFF73EFE402140480D
:100C60000068FFF739FE80213D480068FFF734FE39
:100C70000020019004E0019800900198401C019030
:100C80000198C828F7D32046FFF7CFFF2046FFF78B
:100C9000C9FF1CBD10B50446002020606060202103
:100CA0002F480068FFF71CFE40212D480068FFF721
:100CB00017FE80212A480068FFF712FE20212848ED
:100CC0000068FFF705FE402125480068FFF700FE99
:100CD000802123480068FFF7FBFD10BDF0B50D46ED
:100CE000DDE9054602610027476105F0030109B906
:100CF000846010E0012902D18460C6600BE0022903
:100D000002D18460C66006E0032903D10027876012
:100D1000C76000E0846045EA03070760F0BD08B5DE
:100D200003680093009B23F4E0630093009B03603F
:100D3000009B43F4E0430093009B036032B10368DF
:100D40000093009B0B430093009B036008BD0121AF
:100D50004160704700214160704701680160704741
:100D60004435030010B504467F480068844224D10E
:100D70004FF4947208217D480068FFF70BFD40F2A4
:100D80002912092179480068FFF704FD0222082191
:100D900076480068FFF711FD0022092173480068BA
:100DA000FFF70BFD082171480068FFF71DFD0921C1
:100DB0006E480068FFF718FD79E06D4800688442CE
:100DC00024D14FF49E720C216A480068FFF7E2FCC0
:100DD00040F23D120D2167480068FFF7DBFC02225C
:100DE0000C2164480068FFF7E8FC00220D216148EF
:100DF0000068FFF7E2FC0C215E480068FFF7F4FC96
:100E00000D215C480068FFF7EFFC50E05A4800688D
:100E1000844224D14FF495720A2154480068FFF7A8
:100E2000B9FC40F22B120B2150480068FFF7B2FCCE
:100E300002220A214D480068FFF7BFFC00220B2167
:100E40004A480068FFF7B9FC0A2148480068FFF7E4
:100E5000CBFC0B2145480068FFF7C6FC27E047485C
:100E60000068844223D140F24622062144480068AB
:100E7000FFF790FC40F24722072141480068FFF746
:100E800089FC022206213E480068FFF796FC0022FA
:100E900007213B480068FFF790FC062138480068AE
:100EA000FFF7A2FC072136480068FFF79DFC10BD44
:100EB00010B5C16041F08004C46003604260C1604D
:100EC0000024846010BD704701460868C0B27047B6
:100ED0000CB5436823F00F03436022E0836803F0FE
:100EE00007030193019B13F0010F00D01AE0019B4F
:100EF00013F0060306D0022B07D0042B0AD0062BD2
:100F00000ED10AE0836900930AE0436823F00203EC
:100F1000436005E00368009302E04369009300BF6B
:100F200000BFDBE700BF12B143680B4343600CBD59
:100F300070477047F0B5134FB7FBF1F3DDB2C3F361
:100F40000726114FB7FBF1F403EB8307A4EB47042B
:100F5000052C00D36D1CC26842F08007C760056095
:100F60004660C260F0BD0000BC350300543503008C
:100F7000C035030058350300C4350300C8350300ED
:100F80005C35030068890900105E5F0041EA0203D6
:100F900083607047002181607047836823F080037D
:100FA0008360094B036012B183680B438360704711
:100FB000816841F0200181607047816821F0200143
:100FC00081607047016070470087930310B5FE4849
:100FD0000021016041600181FC48016041600181A4
:100FE000FB48016041600181FA4801604160018174
:100FF000F948016041600181F84801604160018168
:10100000F748016041600181F6480160416001815B
:101010000020F5490880F5490880F5490870F54930
:101020000870F549087000BF0321F4480068FFF715
:10103000A6F900220321F2480068FFF7BEFB052154
:10104000EE480068FFF79BF900220521EC48006894
:10105000FFF7B3FB0421E9480068FFF790F900228D
:101060000421E7480068FFF7A8FB0221E348006875
:10107000FFF785F900220221E1480068FFF79DFB98
:101080000121DE480068FFF77AF900220121DC48DF
:101090000068FFF792FB0C21DA480068FFF76FF950
:1010A00000220C21D8480068FFF787FB0D21D548A6
:1010B0000068FFF764F900220D21D3480068FFF7AC
:1010C0007CFB0021CD480068FFF759F9002211464A
:1010D000CB480068FFF771FB0021CC480068FFF7A0
:1010E0004EF900221146CA480068FFF766FB00BFB0
:1010F00010BD10B50446102C79D2DFE804F00815B5
:10110000222F3C49535D5E6B797A7B7C7D7E00BFEC
:10111000B548007810F0010F04D00321B7480068EB
:10112000FFF729F900BF6AE000BFAF480078C0F3BD
:10113000400020B10521B1480068FFF71CF900BF4D
:101140005DE000BFA8480078C0F3800020B1042112
:10115000AA480068FFF70FF900BF50E000BFA2489F
:101160000078C0F3C00020B10221A4480068FFF756
:1011700002F900BF43E000BF9B480078C0F30010B5
:1011800020B101219D480068FFF7F5F800BF36E067
:1011900000BF95480078C0F34011022000F055FDD3
:1011A00000BF2CE000BF90480078C0F380110420FD
:1011B00000F04BFD00BF22E021E000BF8A484078EC
:1011C00010F0010F04D000218C480068FFF7D3F81D
:1011D00000BF14E000BF84484078C0F3400020B155
:1011E00000218A480068FFF7C6F800BF07E005E065
:1011F00005E004E003E002E001E000E000BF00BF22
:1012000010BDF0B5714E365C002E01DD012600E008
:1012100000266F4F3F5C002F01DD012700E0002713
:10122000F61B6A4F3F5C27B9694F3F5C0FB9012736
:1012300000E00027F41B002A01DD012600E0002663
:10124000002B01DD012700E00027F61B12B90BB9C6
:10125000012700E00027F51BAC421AD15A4E365C3C
:101260008E4202DA584E365C00E00E46564F3E542F
:10127000564E365C964203D1554E365C9E4212D095
:10128000524E3254564E3254514E3354554E3354BE
:1012900009E04D4E31544D4E3254514E32544C4E65
:1012A0003354504E3354F0BD2DE9F0410026002751
:1012B00058480078C0F3800000285AD0002456E037
:1012C0004648035D4448025D4248015D2046FFF701
:1012D00098FF3D48005D002805DD3B48005D401E4D
:1012E0003949085541E03E48005D50B93D48005D30
:1012F00038B93648005D3A4908553548005D3949E6
:1013000008553748005D002806DD01273448005D98
:10131000401E3349085508E000273248005D20B1DF
:101320003048005D401E2F4908552F480088204155
:1013300000F00100B84217D0012F07D12A480088D9
:101340000121A14008432849088006E0264800887A
:101350000121A140884324490880244800880121B4
:10136000A14008432149088000BF601CC4B20A2C78
:10137000A6DB28480078C0F3001020B11D48007893
:10138000401C1C4908701A48007810F0010F62D008
:101390001748007820F001001549087016480078B9
:1013A000FFF7A7FE1148008813490A7801219140F0
:1013B00088430E4908800846008868BB0E480078BC
:1013C000401C0D49087028E0E8090020F2090020BF
:1013D000FC090020060A0020100A00201A0A00203A
:1013E000240A00202E0A0020060000200800002009
:1013F0000A000020040000200500002070350300D2
:1014000058350300643503004C350300683503008C
:10141000503503007C09002006E0084600780A28C1
:1014200019DB0020087016E0B148057800260FE0AF
:101430000A2D00DB0025AF480088284110F0010F7D
:1014400002D0AB48057005E0681CC5B2701CC6B27E
:101450000A2EEDDB00BFBDE8F08110B5A64C21548B
:10146000A64C2254A64C235410BD10B5A5480078B4
:1014700003287FDB0020A34908709D4800781028CE
:101480006FD2DFE800F00815222F3C494A4B4C5937
:1014900068696A6B6C6D00BF9B48007810F0010FA3
:1014A00004D1032199480068FEF769FF00BF59E0A5
:1014B00000BF95480078C0F3400020B9052193484B
:1014C0000068FEF75CFF00BF4CE000BF8E4800786C
:1014D000C0F3800020B904218C480068FEF74FFF5C
:1014E00000BF3FE000BF88480078C0F3C00020B9CB
:1014F000022186480068FEF742FF00BF32E000BFCD
:1015000081480078C0F3001020B901217F480068AD
:10151000FEF735FF00BF25E024E023E022E000BF16
:101520007948407810F0010F04D100217748006815
:10153000FEF725FF00BF15E000BF73484078C0F3F9
:10154000400020B9002172480068FEF718FF00BF74
:1015500008E00FE005E005E004E003E002E001E060
:1015600000E000BF00BF6B48007820F00100401C85
:101570006849087010BD01460020634A12880A417C
:1015800002F00100704770B505460C46012C0DD1E4
:101590000023372219462846FFF75FFF5A48008884
:1015A0000121A9400843584908800CE03723002254
:1015B00011462846FFF751FF534800880121A940F2
:1015C000884351490880102D73D2DFE805F00816D2
:1015D0002432404E5C6A798788898A8B8C8D012CF5
:1015E00005D1032149480068FEF7C5FE04E0032148
:1015F00046480068FEF7C3FE78E0012C05D10521BE
:1016000042480068FEF7B7FE04E005213F48006845
:10161000FEF7B5FE6AE0012C05D104213B480068C5
:10162000FEF7A9FE04E0042138480068FEF7A7FE93
:101630005CE0012C05D1022134480068FEF79BFED6
:1016400004E0022131480068FEF799FE4EE0012CCB
:1016500005D101212D480068FEF78DFE04E001212F
:101660002A480068FEF78BFE40E0012C05D10C21D2
:1016700029480068FEF77FFE04E00C212648006838
:10168000FEF77DFE32E0012C05D10D2122480068D5
:10169000FEF771FE04E00D211F480068FEF76FFEA3
:1016A00024E0012C06D1002118480068FEF763FEF3
:1016B00005E01AE0002115480068FEF760FE15E01D
:1016C000012C05D1002112480068FEF754FE04E009
:1016D00000210F480068FEF752FE07E006E005E033
:1016E00004E003E002E001E000E000BF00BF70BDE5
:1016F0000500002008000020060A0020100A002033
:101700001A0A0020040000200600002070350300A3
:10171000683503000A0000206435030008B500BFE7
:10172000002306222F2165480068FEF78BFD012269
:10173000110362480068FEF7AAFD2B20FEF7DDFECC
:101740002B208DF80000E0208DF8010000208DF89E
:10175000020001208DF803006846FEF78CFE00BFF2
:10176000002057490870574908702821564831F021
:10177000C2FB08BD70B50446002551480078082812
:1017800001DB002001E04E480078054605EB8500AE
:101790004D49084421680160217901714848007869
:1017A000401C4749087008460078082801DB0020E3
:1017B000087042480068FEF7A9FD48B900BF2078CC
:1017C0003E49096808603D480068FEF74EFD00BFCD
:1017D00070BD10B539480068FEF795FD39480078AE
:1017E000082801DB002001E03648007800EB80008B
:1017F00035490844D0F8010080B330480068FEF74E
:1018000042FD84B22F480078082801DB002001E067
:101810002C48007800EB80002B4A1044D0F80110CF
:1018200020468847FF2027490978082901DB002145
:1018300001E02449097801EB8101234A505400203A
:1018400020490978082901DB002101E01D490978B8
:1018500001EB81011C4A1144C1F8010019480078CC
:10186000401C1849087008460078082801DB002051
:10187000087014480078082801DB002001E01148B6
:1018800000780F490978884214D000BF0D480078CD
:10189000082801DB002001E00A48007800EB800006
:1018A0000949085C05490968086004480068FEF7B2
:1018B000DCFC00BF00BF00BF10BD0000F43503001A
:1018C0000B0000200C000020380A002010B500207A
:1018D00041490880414908700220414908700F20A1
:1018E000404908700020404908804049088040492C
:1018F000088000BF05213F480068FEF7D5FC00BF07
:1019000010BD70B50446002000EBA40532480088E5
:1019100028443149088031480078401C2F4908701C
:1019200008460078402816DB2F48008840102A49D6
:10193000098800EB61002C4908802C492A4800885E
:1019400030F07CFF24480088294908800020224983
:1019500008802249087070BD1CB5002000900190DD
:101960001F480078002804DD1D480078401E1C49EF
:1019700008701B48007860B91F48CDF801000520A9
:101980008DF800006846FFF7F5FE16480078144908
:1019900008701CBD10B500241048007808B900205C
:1019A00005E00D4800880D49097890FBF1F084B2FC
:1019B0004FF6FF7000EA84140C49204630F03EFFD9
:1019C0000948048010BD0948B0F9000070470020A4
:1019D000074908887047000012000020140000200A
:1019E0001000002011000020160000200E00002032
:1019F00018000020F43503000319000010B5002082
:101A0000B3490880B3490880B3490880B3490870D6
:101A1000B3490880B3490870B349087000BF0F216B
:101A2000B2480068FEF7ABFC00220F21B048006806
:101A3000FEF7C3FE00BF10BD10B5A748007800F048
:101A40000200022804D10C21A8480068FEF797FC88
:101A5000A148007800F00400042804D10D21A34817
:101A60000068FEF78CFC00209D49088010BD10B571
:101A70009748007810F0010F04D00F219B480068B0
:101A8000FEF779FC9248007800F0020002280AD1A3
:101A90000C2196480068FEF76EFC0F219348006801
:101AA000FEF769FC04E00C2190480068FEF767FC33
:101AB0008748007800F0040004280AD10D218B48E3
:101AC0000068FEF758FC0F2188480068FEF753FCB9
:101AD00004E00D2185480068FEF751FC7C48007841
:101AE00000F00800082804D10F2180480068FEF7A4
:101AF00042FC10BD10B578480088002846D17548D2
:101B0000008873490988884202D1FFF7B0FF9BE043
:101B10006F48007800F02000202827D10F2173485B
:101B20000068FEF72CFC6A48008820F02000684915
:101B300008806848008820F02000664908806448D2
:101B400000880988084363490988884208D1012030
:101B500064490870002061490870614908800DE0FF
:101B60000020604908705E49088007E001205D4957
:101B70000870002059490870594908805548008864
:101B8000534909884840544908805DE05548007829
:101B900000283DD14F48008878B951480088142862
:101BA00052DDFFF749FF00204B4908804C4908806F
:101BB000484800884649088046E04B48007860B9AC
:101BC0004748008814283FDDFFF736FF00204449CE
:101BD000088001204449087036E0414800881428F4
:101BE00032DD0F2141480068FEF7C5FB3948008807
:101BF00040F02000374908800020394908803649E4
:101C000008803949087033480088314908801BE052
:101C100032480078012817D131480088142813DD94
:101C20000F2132480068FEF7A6FB2A48008840F0E2
:101C3000200028490880002027490880284908807A
:101C4000244800882249088010BD234A128862B9BE
:101C5000012905D11F4A128802431E4B1A8004E055
:101C60001C4A128882431B4B1A8070471A4800880E
:101C700020B11B480088401C19490880704710B5E6
:101C800018480078012822D11548008814281EDD44
:101C900012480078D8B91048007800F002000228F5
:101CA00004D10C2111480068FEF765FB0A48007852
:101CB00000F00400042804D10D210C480068FEF750
:101CC0005AFB00200649088001200449087010BD15
:101CD0001A0000201C0000201E0000202000002010
:101CE000220000202400002025000020643503008D
:101CF0004C3503001CB50020F7490880F7490880DF
:101D0000F7490880F7490870F7490870F7490880D3
:101D1000F7490880F74908701421F74831F0EBF8CB
:101D200000BF00BF40F241120121F4480068FEF7F5
:101D300031FD00220121F1480068FEF73EFD00223E
:101D40000221EE480068FEF738FD0221EC480068E9
:101D5000FEF711FB0A21EB480068FEF7ABFE60219D
:101D6000E9480068FEF7EDFE0121E7480068FEF74C
:101D7000DCFE00BF00BF40F20B120B21E3480068FD
:101D8000FEF708FD02220B21E0480068FEF715FD72
:101D90000B21DE480068FEF727FDDC480068FEF7EF
:101DA00058FD4FF6FF70009060230022114601900D
:101DB000D7480068FEF792FF00BF00BF0020D5495A
:101DC0000880D5490880D5490870D5490880D5498B
:101DD00008701CBD0620C7490978491CC54A117006
:101DE0000021CD4A1180C0490978C1F3400101B1F9
:101DF0000320C049097881420BDA0021B94A1170E9
:101E0000BA4A11800121C84A11700321C34A1170D6
:101E100010E00021C14A1170B24A1170B24909782C
:101E200021F00101491CB04A11700021AF4A118014
:101E3000B04A11707047AC49097860F34101AA4A71
:101E40001170704738B50446012C1DD1B648007892
:101E5000D0B94FF4F070A24908800020A149087061
:101E60002820A24908800120AF4908700020A94914
:101E70000880A94908800120A84908700020A849C5
:101E80000880A849087019E0C4B9A748007801285B
:101E900014D10020A149087094490880A249087013
:101EA00090490870934908708D49088099490880C5
:101EB000994908809A4908809A4908708C48008896
:101EC0008A49098888421CD000BF8848008828B900
:101ED00001218D480068FEF728FE0DE08348008848
:101EE000FF2300220121009087480068FEF7EBFDE8
:101EF00085480068FEF714FE00BF7C4800887C49D6
:101F0000088038BD76490880704788490978C1F350
:101F10008001002953D08149097800293ED07D49AC
:101F20000988A1F57F42FF3A03D100216A4A118056
:101F300003E078490988684A11806F4949886E4AE8
:101F400011801146898851801146C98891801146B7
:101F50000989D180114649891181114689895181A8
:101F60001146C98991811146098AD1811146498A50
:101F700011825949098851820021584A1180002054
:101F800009E05D4931F81010544A12881144534A4F
:101F90001180411CC8B20A28F3DB10E000215D4A21
:101FA00011804D4A11804D4A1180002005E000212A
:101FB000514A22F81010411CC8B20A28F7DB7047BA
:101FC00038B50025FFF7A1FF58480078C0F380001E
:101FD000002870D05148007830B1012810D0022874
:101FE00031D0032868D106E10020404908804C49DF
:101FF00008804C4908703B4908703E4908701EE152
:1020000038480078401C37490870084600781E2878
:1020100006D147203549088000204549088011E055
:1020200030480078322806D12B4800880A2809DA7F
:10203000FFF7D0FE06E02B4800783C2802D10220B2
:1020400036490870FBE034480088401C324908805B
:10205000084600880A2801DA0A2500E014251E48EF
:102060000088A84202DAFFF7B5FEC3E01A480088EC
:102070003C280DDD2B480078401C2A490870084692
:1020800000780A28F1DD00200870FFF7A3FEB1E018
:1020900000202449087015480488114800880F4919
:1020A0000988884246DB0E4800880C490988884226
:1020B00003DA002006E0C3E0B3E0094800880749DE
:1020C0000988401A00EB40000849098801EBA0107C
:1020D0000649088059E00000280000202A0000205E
:1020E0002C0000202E0000203E00002030000020A8
:1020F000320000202F000020600A00205C35030021
:102100007435030084350300903503004C3503001B
:10211000E035030038000020260000203A000020AF
:102120003C0000203B000020340000207C090020FF
:10213000360000206D4800886D490988884201DA20
:10214000002004E06948008869490988401A00EBCA
:10215000400068490988B1EBA01F01DA002012E0B5
:102160006248008862490988884201DA002004E058
:102170005E4800885E490988401A00EB40005D49CE
:102180000988A1EBA0105B4908805948008857498D
:102190000988401A58490988084400B256490880FD
:1021A0000846B0F90000B0F5807F04DD5148008892
:1021B000401C504908805048B0F9000010F5807F5D
:1021C0000ADA4C480088012801DA002002E0494878
:1021D0000088401E4749088046480088844202D053
:1021E00000204549088043480088FF2802DBFF2083
:1021F0004049088023E041480088401C3F4908804E
:102200000846008846280BDB3D480088012807DC8B
:1022100000200880282037490880012039490870AB
:102220000DE00020374908703249088033490880A2
:1022300035490870354908703549087000BF00BF3E
:10224000344800882B49098888421CD000BF29489F
:10225000008828B9012130480068FEF766FC0DE0CF
:1022600024480088FF230022012100902A480068AA
:10227000FEF729FC28480068FEF752FC00BF1D4805
:1022800000882449088038BD00201849098801EBDE
:10229000810188B270471B480078704700201F49B1
:1022A000097811F0010F06D001201C49097821F0AE
:1022B00001011A4A1170704710B519480068406949
:1022C0001849088000BF16480068FEF743FD14480F
:1022D0000068FEF7AAFC12480068FEF738FD0020EF
:1022E0000F490968486100BF10BD00002A000020A6
:1022F0002C00002030000020360000203C00002090
:10230000280000203A0000203B0000202E00002082
:102310002F00002032000020903503003E000020F6
:10232000E03503003800002070B50446E4B2002513
:1023300011E000BFFA480068FEF73FFE48F6DE11E4
:10234000F7480068FEF73EFEF5480068FEF730FEED
:1023500000BF681CC5B2A542EBDB70BD10B5002202
:102360000E21F0480068FEF728FA00220F21ED4800
:102370000068FEF722FA0F21EB480068FDF7FFFF27
:102380000220FFF7D1FF0E21E7480068FDF7F3FFB9
:102390000420FFF7C9FF0F21E3480068FDF7EBFFBA
:1023A0000420FFF7C1FF02220E21DE480068FEF77D
:1023B00004FA02220F21DB480068FEF7FEF910BD87
:1023C00070B5044600220F21D6480068FEF7F5F9E3
:1023D00000252AE00E21D4480068FDF7D0FF022036
:1023E000FFF7A2FF04F08000802805D10F21CE481E
:1023F0000068FDF7C0FF04E00F21CB480068FDF73F
:10240000BEFF6006040E0220FFF78EFF0E21C648B5
:102410000068FDF7B0FF0420FFF786FF0E21C248D9
:102420000068FDF7ACFF681CC5B2082DD2DB0222A4
:102430000F21BC480068FEF7C0F90E21BA480068B9
:10244000FDF79DFF0420FFF76FFF0E21B6480068DF
:10245000FDF791FF0420FFF767FFB348006840686D
:10246000C0F3C03060B90220FFF75EFF0E21AE4816
:102470000068FDF784FF0220FFF756FF012070BDC2
:102480000020FCE710B500220E21A6480068FEF7E8
:1024900094F900220F21A3480068FEF78EF90F215E
:1024A000A1480068FDF767FF0220FFF73DFF0E21FE
:1024B0009D480068FDF75FFF0420FFF735FF0F21FF
:1024C00099480068FDF75BFF0420FFF72DFF0E2100
:1024D00095480068FDF753FF10BD2DE9F84F0646FB
:1024E0008846144614B90120BDE8F88FB4F5007F82
:1024F00006DCB6F5007F03DC3019B0F5007F01DDA6
:102500000020F1E7002762E00025009600BF4FF0B1
:10251000000900BFFFF7B6FF02220F2181480068C3
:10252000FEF74BF90220FFF7FFFE7F480068406886
:10253000C0F3C03060B19DF8010040074FEA107A47
:102540004AF0A000FFF73CFF012801D181460DE0D1
:102550000420FFF7E9FE09F10100C0B281462028FE
:1025600003DB4FF00009002500E0D3E700BFB9F11D
:10257000010F27D1A54203DBFFF7F0FE0120B3E7EF
:10258000BDF80010C8B2FFF71BFF00B91CE000BF88
:1025900018F80500FFF714FF08B9002511E0681CC2
:1025A00085B2BDF80000401C80B20090BDF800006C
:1025B00010F00F0F01D0A54202DBFFF7CFFE00E0C5
:1025C000E6E700BF002DA2D100BF781CC7B2082FDC
:1025D0009ADBFFF7C3FE002086E710B50446002211
:1025E0000F2150480068FEF7E8F80E214E480068B9
:1025F000FDF7C5FE0220FFF797FE012C05D10F2144
:1026000049480068FDF7B7FE04E00F21464800681E
:10261000FDF7B5FE0220FFF787FE0E214248006855
:10262000FDF7A9FE0420FFF77FFE0E213E4800685B
:10263000FDF7A5FE10BD70B502220F2139480068D4
:10264000FEF7BBF80024002520E00E213648006884
:10265000FDF795FE0420FFF767FE0E213248006863
:10266000FDF789FE0420FFF75FFE6006040E2E488A
:1026700000684068C0F3C03008B144F001040E2186
:1026800029480068FDF77BFE681CC5B2082DDCDB1D
:10269000204670BD2DE9F84305468946144614B915
:1026A0000120BDE8F883B4F5007F06DCB5F5007FB6
:1026B00003DC2819B0F5007F01DD0020F1E70027D9
:1026C0005AE00026009500BFFFF7DCFE02220F2132
:1026D00014480068FEF771F80220FFF725FE124843
:1026E00000684068C0F3C03000B942E09DF80100C6
:1026F00040074FEA107848F0A000FFF761FE00B9EC
:1027000037E0BDF80010C8B2FFF75AFE00B930E05C
:10271000FFF7B8FE48F0A100FFF752FE30B928E0FD
:102720007C350300503503006835030000BFFFF718
:1027300082FF09F80600701C86B2BDF80000401C3C
:1027400080B20090A64204DABDF8000010F0FF0F3E
:1027500009D10120FFF741FFFFF700FEA64201DB90
:1027600001209EE703E00020FFF737FFDFE700BF0F
:10277000AAE700BF781CC7B2082FA2DBFFF7EEFD67
:1027800000208EE7704710B500BF00BF0121B94897
:102790000068FDF7F0FD00220121B7480068FEF750
:1027A0000CF800BF02220021B4480068FEF705F8CB
:1027B00000BF0020B2490870B2490870B2490870E1
:1027C00010BDB2480078401CB0490870704710B581
:1027D000044600BF012C05D10721A6480068FDF77B
:1027E000CAFD04E00721A3480068FDF7C8FD00BF4B
:1027F00010BD10B50024A64800784010A449087008
:10280000A4480068406810F0010F03D09E4800788B
:1028100001280CD19E48007840F080009C49087047
:1028200000BF072193480068FDF7A5FD00BF9A4847
:10283000007810F0010F07D09548007800280ADCD6
:1028400002209549087006E091480078FF2802DBD5
:1028500003209149087091480078401CC0B28F490C
:1028600008701E2830DB894800788D490978884235
:1028700006DB864800788A490978401AC4B207E026
:1028800087480078C0F1FF00804909780844C4B245
:10289000102C09DC7A48007840F001007849087073
:1028A00032208049087008E07548007800F0FE008A
:1028B000734908703C207B490870002077490870F4
:1028C0007248007876490870774800784010764959
:1028D0000870764800786D49097888420AD06B48BC
:1028E0000078724908707048007840F0C0006E4966
:1028F00008700AE06C480078002806DC0020674970
:10290000087062480078664908705D48007810F0E9
:10291000020F0AD064480078002810DC584800787C
:1029200000F0FD005649087009E05F480078FF2874
:1029300005DB5348007840F002005149087010BD93
:102940000146042908D14E48007810F0040F01D048
:10295000012070470020FCE7022908D14848007890
:1029600010F0020F01D00120F3E70020F1E7012968
:1029700008D14348007810F0010F01D03220E8E779
:102980003C20E6E70020E4E700B54948007800F085
:10299000FD00474908704048007810F0020F0CD045
:1029A0003D48007800F0FD003B490870084600787B
:1029B00000F00100801C3E4908703148007800F0AA
:1029C0000600042807D13B48007820F00400001DD1
:1029D0003849087005E03748007820F00400354990
:1029E00008700420FFF7ACFF01280FD125480078BC
:1029F00078B90120234908702148007840F002008E
:102A00001F490870FF202849087002E000201D4976
:102A1000087000BD30B91A49097801F0FB01184A65
:102A2000117005E01649097841F00401144A11704B
:102A3000704700201E49097811F0010F00D00120D5
:102A4000704700201A49097801F00201022900D1DB
:102A50000120704717480078C0F3800008B90120B2
:102A600070470020FCE7124800787047064908705C
:102A70007047000068350300503503004C350300F3
:102A8000410000204A0000204B00002042000020AE
:102A90004300002064350300450000204900002069
:102AA000480000203F000020460000204700002092
:102AB000440000204000002008B50020FD490870B7
:102AC000FD490870FD490870C821FD4830F013FA2F
:102AD000C821FC4830F00FFA0020FB490860FB4990
:102AE0000870FB490870FB490870FB49087000BF7B
:102AF000FA480068FEF736F900BF412300221B2187
:102B0000F6480068FEF7D4F901220321F348006873
:102B1000FEF7DEF92620FDF7F0FC26208DF80000F8
:102B2000E0208DF8010001208DF803006846FDF7D4
:102B3000A2FC00BF00BFC821E94830F0DCF9C82181
:102B4000E84830F0D8F90020E7490860E749087004
:102B5000E7490870E7490870E749087000BFE7488F
:102B60000068FEF7FFF800BF412300220321E3487D
:102B70000068FEF79DF901220321E0480068FEF796
:102B8000A7F92720FDF7B9FC27208DF80000E020E9
:102B90008DF8010001208DF803006846FDF76BFCFD
:102BA00000BF00BFC821D64830F0A5F9C821D548DC
:102BB00030F0A1F90020D4490860D4490870D44904
:102BC0000870D4490870D449087000BFD348006821
:102BD000FEF7C8F800BF412300220321CF48006858
:102BE000FEF766F901220321CC480068FEF770F970
:102BF0002820FDF782FC28208DF80000E0208DF8C9
:102C0000010001208DF803006846FDF734FC00BF89
:102C100000BFC821C24830F06EF9C821C14830F069
:102C20006AF90020C0490860C0490870C0490870AE
:102C3000C0490870C049087000BFC0480068FEF76E
:102C400091F800BF412300221B21BC480068FEF719
:102C50002FF901220321B9480068FEF739F929202C
:102C6000FDF74BFC29208DF80000E0208DF80100D5
:102C700001208DF803006846FDF7FDFB00BF00BF93
:102C800008BD9648006840698A490870084600787F
:102C900010F09E0F06D09148006840698F48006888
:102CA000006808708448007810F0010F35D1894819
:102CB00000788949097888422FD08848006840699F
:102CC00000F02000202801D0012000E0002020BBDF
:102CD0007948007820F00100401C774908707D4851
:102CE0000078C82801DB002001E07A4800787549A7
:102CF000085C7249087077480078C72805DA75487B
:102D00000078401C7349087002E000207149087087
:102D10006A48007871490968086078480068406925
:102D2000644908700846007810F09E0F06D073487A
:102D30000068406971480068006808705E48007863
:102D4000C0F34000A8BB6B4800786B490978884203
:102D50002FD06A480068406900F02000202801D088
:102D6000012000E0002020BB5348007820F0020042
:102D7000801C514908705F480078C82801DB00209A
:102D800001E05C4800785749085C4C490870594894
:102D90000078C72805DA57480078401C5549087064
:102DA00002E00020534908704448007853490968FC
:102DB00008605A48006840693E4908700846007833
:102DC00010F09E0F06D055480068406953480068CF
:102DD0000068087038480078C0F38000A8BB4D48F0
:102DE00000784D49097888422FD04C4800684069E6
:102DF00000F02000202801D0012000E0002020BBAE
:102E00002D48007820F00400001D2B49087041482F
:102E10000078C82801DB002001E03E4800783949ED
:102E2000085C264908703B480078C72805DA39480D
:102E30000078401C3749087002E0002035490870CE
:102E40001E4800783549096808603C4800684069B8
:102E5000184908700846007810F09E0F06D03748D1
:102E600000684069354800680068087012480078BA
:102E7000C0F3C000E8B92F4800782F49097888428C
:102E800076D02E480068406900F02000202801D04C
:102E9000012000E0002060B90748007820F0080019
:102EA00008300549087023480078C82848DB00200E
:102EB00048E05DE04C000020700000204D00002044
:102EC000740A00203C0B0020500000205400002019
:102ED000550000205600002057000020BC3503009C
:102EE000040C0020CC0C0020580000205C000020C6
:102EF0005D0000205E0000205F000020C035030060
:102F0000940D00205C0E0020600000206400002072
:102F1000650000206600002067000020C435030023
:102F2000240F0020EC0F0020680000206C0000201F
:102F30006D0000206E0000206F000020C8350300E7
:102F4000F7480078F749085CF7490870F4480078BA
:102F5000C72805DAF2480078401CF149087002E001
:102F60000020EF490870F0480078F04909680860CF
:102F7000704730B1012809D002280CD0032814D1A1
:102F80000EE0EB4B1970EB4B1A600FE0EA4B197037
:102F9000EA4B1A600AE0EA4B1970EA4B1A6005E046
:102FA000E94B1970E94B1A6000E000BF00BF7047A1
:102FB00010B5E74800684069E6490870E6480078BF
:102FC000C8282DDAE24800680068C0B2E2490978F2
:102FD000C82901DB002101E0DF490978DF4A5054AC
:102FE000DB4800684069DC480078C72805DADA4821
:102FF0000078401CD849087002E00020D6490870CB
:10300000D5480078CA490978884209DBC948006870
:1030100018B1D248C749096888470020CE490870CE
:1030200000BF00BF10BD0020CD490978CD4A1278FD
:1030300091423ED0CC490978C1F30011002938D122
:10304000C949097821F00101491CC74A1170C049DA
:1030500009684969BF4A1170BD490968496901F0A9
:103060002001202901D0012100E00021D1B9BC4973
:103070000978C82901DB002101E0B9490978BB4A78
:10308000505CB7490978C72905DAB5490978491C60
:10309000B34A117002E00021B14A1170AC490968CD
:1030A00008600CE0B049097821F00101AE4A1170C6
:1030B00005E0AD49097821F00101AB4A117000BF6C
:1030C00000BF704730B502460020A74B1B7823F0A5
:1030D00010031033A44C237023461B7823F0010304
:1030E000237000BF19E0135C9E4C2478C82C01DBD0
:1030F000002401E09B4C24789C4D2B55994B1B7868
:10310000C72B05DA974B1B785B1C964C237002E0AB
:103110000023944C2370431CD8B28842E3DB924BCB
:103120001B7823F01003904C237030BD10B59048ED
:1031300000684069874908708E480078C8282DDAF1
:103140008B4800680068C0B28A490978C82901DB49
:10315000002101E087490978874A50548448006873
:10316000406984480078C72805DA82480078401C06
:103170008049087002E000207E4908707D48007890
:103180006D490978884209DB6C48006818B17A48B3
:103190006A490968884700207649087000BF00BF67
:1031A00010BD002075490978754A127891423ED0C9
:1031B0006D490978C1F34011002938D16A4909786D
:1031C00021F00201891C684A11706949096849693E
:1031D000604A117066490968496901F02001202997
:1031E00001D0012100E00021D1B964490978C82942
:1031F00001DB002101E061490978624A505C5F49C6
:103200000978C72905DA5D490978491C5B4A1170BC
:1032100002E00021594A11705549096808600CE024
:103220005149097821F002014F4A117005E04E49D9
:10323000097821F002014C4A117000BF00BF7047AD
:1032400030B502460020484B1B7823F02003203382
:10325000454C237023461B7823F00203237000BFE4
:1032600019E0135C464C2478C82C01DB002401E0F3
:10327000434C2478434D2B55414B1B78C72B05DA23
:103280003F4B1B785B1C3E4C237002E000233C4C00
:103290002370431CD8B28842E3DB334B1B7823F006
:1032A0002003314C237030BD10B5374800684069A9
:1032B0002849087035480078C8282DDA3248006857
:1032C0000068C0B231490978C82901DB002101E05A
:1032D0002E4909782E4A50542B48006840692B48E3
:1032E0000078C72805DA29480078401C274908706B
:1032F00002E0002025490870244800781049097828
:10330000884209DB0F48006818B121480D49096857
:10331000884700201D49087000BF00BF10BD000095
:103320006E000020EC0F00204D000020C835030087
:1033300054000020500000205C00002058000020B5
:1033400064000020600000206C0000206800002065
:10335000BC3503004C00002055000020740A0020FA
:103360005600002057000020700000203C0B002079
:10337000C03503005D000020040C00205E0000202A
:103380005F000020CC0C0020C43503006500002045
:10339000940D002000209F4909789F4A127891429D
:1033A0003ED09E490978C1F38011002938D19B494C
:1033B000097821F00401091D984A1170984909689B
:1033C0004969984A117096490968496901F02001D4
:1033D000202901D0012100E00021D1B98D490978CF
:1033E000C82901DB002101E08A4909788E4A505C36
:1033F00088490978C72905DA86490978491C854A28
:10340000117002E00021834A117085490968086043
:103410000CE08249097821F00401804A117005E02E
:103420007E49097821F004017C4A117000BF00BF79
:10343000704730B502460020784B1B7823F04003DC
:103440004033764C237023461B7823F0040323700B
:1034500000BF19E0135C704C2478C82C01DB0024F9
:1034600001E06D4C2478704D2B556B4B1B78C72BAE
:1034700005DA694B1B785B1C674C237002E0002364
:10348000654C2370431CD8B28842E3DB634B1B7846
:1034900023F04003614C237030BD10B563480068D1
:1034A00040696049087062480078C8282DDA5F4892
:1034B00000680068C0B25E490978C82901DB0021B4
:1034C00001E05B4909785B4A5054584800684069FC
:1034D00057480078C72805DA55480078401C5449F9
:1034E000087002E0002052490870514800785249A3
:1034F0000978884209DB5148006818B14D484F49A6
:103500000968884700204A49087000BF00BF10BD05
:1035100000204B4909784B4A127891423CD03F49F0
:103520000978C90938D13D49097821F008010831E5
:103530003A4A11703D49096849693A4A11703B4954
:103540000968496901F02001202901D0012100E02A
:103550000021D1B93A490978C82901DB002101E0ED
:1035600037490978384A505C35490978C72905DA5E
:1035700033490978491C324A117002E00021304A6F
:1035800011702A49096808600CE02449097821F083
:103590000801224A117005E02049097821F008014C
:1035A0001E4A117000BF00BF704730B502460020B0
:1035B0001A4B1B7823F080038033184C237023466A
:1035C0001B7823F00803237000BF19E0135C1D4C27
:1035D0002478C82C01DB002401E01A4C24781A4D11
:1035E0002B55184B1B78C72B05DA164B1B785B1C29
:1035F000144C237002E00023124C2370431CD8B2F9
:103600008842E3DB054B1B7823F08003034C2370D7
:1036100030BD000066000020670000207000002020
:10362000C43503004C0000205C0E0020C8350300A8
:103630006D000020240F00206C0000206800002096
:103640006E0000206F000020EC0F002010B500205D
:1036500040490880404908700120404908700F2007
:103660003F49087000203F4908803F49088000BF5B
:1036700006213E480068FCF717FE00BF10BD70B57C
:103680000446002000EBA405324800882844314954
:10369000088031480078401C2F490870084600789F
:1036A000402816DB3248008840102A49098800EB80
:1036B00061002F4908802B492D4800882FF02FF9F1
:1036C000244800882849088000202249088022498F
:1036D000087070BD1CB50020009001901F48007854
:1036E000002804DD1D480078401E1C4908701B4856
:1036F000007860B91F48CDF8010006208DF8000061
:103700006846FEF737F816480078144908701CBD63
:1037100010B500241048007808B9002005E00D48D5
:1037200000880D49097890FBF1F084B24FF6FF70E4
:1037300000EA84140B4920462FF0F1F80C4804806D
:1037400010BD0848B0F900007047002006490888FD
:1037500070470000760000207800002074000020F0
:1037600075000020720000207C000020F43503006A
:103770007A0000207F3600001CB5002055490880E3
:1037800055490880554908805549087000BF40F2E6
:103790000712072153480068FCF7FCFF02220721AB
:1037A00050480068FDF709F807214E480068FDF70A
:1037B0001BF800BF00BF4B480068FDF74AF84FF602
:1037C000FF70009060230022114601904648006877
:1037D000FDF784FA00BF00BF43480068FDF7BAFA5E
:1037E00041480068FDF721FA3F480068FDF7AFFA4D
:1037F00000203D490968486100BF3C4800883C49B9
:1038000008801CBD34480088401C3349088000BF34
:1038100000BF704710B5002433480068406984B287
:1038200000BF31480068FDF795FA2F480068FDF7A2
:10383000FCF92D480068FDF78AFA00202A4909683A
:10384000486100BF24480088204484B200202249F7
:1038500008802348007848B90120214908704FF6B4
:10386000FF7000EA44001B4908800AE01B480088FA
:10387000401000EB64001749098800EB610015490E
:1038800008801648048010BD10B5002200200021D9
:10389000104B1B88CBB9144B1B685B6999B20E4B5C
:1038A0001B880B4499B2114B1A88114B1B88D31AF1
:1038B00098B200B9012008B9002304E04FF47A73EC
:1038C0004B43B3FBF0F3034C238010BD00200149B0
:1038D000088870477E0000208000002082000020C1
:1038E000840000204C350300D03503007E09002001
:1038F00086000020012812D1F749097821F0200123
:10390000F54A11700321F54A11700521F44A11702E
:103910000021F44A11700921F34A11701EE00228B7
:1039200013D1ED49097821F020012031EA4A1170C4
:103930000321EA4A11700521E94A11700021E94A80
:1039400011700921E84A117008E00021E34A117062
:10395000E34A1170E34A1170E34A1170704708B5E9
:103960000020E24908700120E14908700020E14987
:103970000870E1490870E1490870E1490870E149BF
:103980000870E1490870E1490880E1490870E1499F
:103990000870E1490870E1490870CF490870E049B2
:1039A00008700846007820F00400001D08700846E2
:1039B000007820F00200801C08700020D9490870AF
:1039C000D9490870D9490860D9490870D94908709F
:1039D000C148007820F00800BF4908700846007808
:1039E00020F0100008700846007820F020000870D1
:1039F0000020FFF77FFF0020CF490870CF490870F3
:103A0000B548007820F00400B34908700020CC4984
:103A1000087000BF0921CB480068FCF7B0FC002209
:103A20000921C9480068FCF7C8FE0A21C54800689A
:103A3000FCF7A5FC00220A21C3480068FCF7BDFE84
:103A40000B21C0480068FCF79AFC00220B21BE48FD
:103A50000068FCF7B2FE0821BA480068FCF78BFC4E
:103A600000220821B8480068FCF7A7FE0F21B748DC
:103A70000068FCF784FC00220F21B5480068FCF7C1
:103A80009CFE00BFB3480068FCF7E3FE02220B2156
:103A9000B0480068FCF791FE01220B21AD48006898
:103AA000FCF778FE012313220B21AA480068FCF7DB
:103AB000A1FE14208DF80000E0208DF80100002008
:103AC0008DF8020001208DF803006846FCF7D3FC56
:103AD00000BF00BF9F480068FCF7BBFE0123132214
:103AE0000D219C480068FCF785FE02220D219948B3
:103AF0000068FCF762FE01220D2196480068FCF781
:103B000049FE14208DF80000E0208DF8010000200F
:103B10008DF8020001208DF803006846FCF7ABFC2D
:103B200000BF00BF08BD00206B49097811F0010FEC
:103B300003D183490978012900D101206649097818
:103B4000C1F3800101B90120704710B50024694814
:103B5000007806287ED2DFE800F00383A6BEBDBC55
:103B60006A480088002804DD68480088401E6749CC
:103B7000088066480088002871D15C48007820B130
:103B8000012803D0022868D13CE067E0584800785B
:103B9000012825D1FFF7C7FF012809D16249087024
:103BA000052054490870084600785949087028E0F3
:103BB000002053490870534908700120FFF79AFE0E
:103BC0005148007814305049087001204949087064
:103BD000084600784E49087000205F49088010E0D0
:103BE00000204249087005204249087008460078C4
:103BF000474908700120474908700846007846493F
:103C000008702BE03A480078022811D1FFF772FEC5
:103C10003D48007814303C4908700320354908704D
:103C2000084600783A49087000204B49088010E0A7
:103C300000202E49087005202E490870084600789B
:103C40003349087002203349087008460078324929
:103C5000087003E043E102E0FFE700BF00BF55E169
:103C60001D480078C0F30010E0B900203A490880F0
:103C70001F48007802280ED105201E49087008460A
:103C8000007823490870012022490870084600780E
:103C90002149087006E0022016490870084600789D
:103CA0001B49087032E112480078022856D10020E2
:103CB0002949088005200F490870084600781449F2
:103CC00008700120134908700846007812490870EE
:103CD00087E005E1A9E085E0A10000209D0000202B
:103CE0009E0000209F000020A00000208A000020ED
:103CF0008B0000208C000020900000209B00002002
:103D000091000020920000209300002094000020E9
:103D100099000020960000209A00002088000020D2
:103D2000A20000209700002098000020A80000209A
:103D3000890000209C000020A3000020A400002097
:103D4000A5000020683503005035030064350300EA
:103D50004C3503005C3503008E000020FE480088CF
:103D6000401CFD490880FD48007840B9FC480078B7
:103D700010B94FF4AF7403E04FF4967400E064247C
:103D8000F5480088A0422CDB0020F6490870F6496F
:103D90000870F1490880F549087008460078F44930
:103DA0000870EF480078401CED490870084600781C
:103DB000F0490870EA480078072812DB0020EE4935
:103DC0000870EE49087008460078ED490870022036
:103DD000EC4908700020E249087008460078E5497F
:103DE000087093E0E8480078C0F30010E0B90020C4
:103DF000D9490880E548007801280ED10520DB4923
:103E0000087008460078DA4908700220DB4908701B
:103E100008460078DA49087006E00420D3490870A3
:103E200008460078D249087070E0D8480078012828
:103E300011D10020C84908800520CC4908700846E7
:103E40000078CB4908700220CC49087008460078F9
:103E5000CB49087042E0C0480088401CBE49088039
:103E6000BE48007840B9BE48007810B94FF4AF742E
:103E700003E04FF4967400E06424B7480088A04241
:103E80002CDB0020B7490870B7490870B249088098
:103E9000B649087008460078B5490870B0480078FF
:103EA000401CAF49087008460078B2490870AC4819
:103EB0000078072812DB0020AF490870AF4908706E
:103EC00008460078AE4908700320AE49087000200B
:103ED000A349087008460078A649087016E000BF9C
:103EE0000020A5490870A149087008460078A0493B
:103EF000087000209A490870084600789D490870AB
:103F0000002095490880FFF7F5FC00BF00BF10BDF9
:103F100010B5FEF79FFD01281CD19B48007810F0DA
:103F2000010F14D09A480078401C9949087008463F
:103F300000780A280EDD0020087093480078C043FE
:103F40009149097860F300018F48017002E0002078
:103F50008F49087010BD86480078844909788842E6
:103F600002D0052087490870854800788349097880
:103F7000884202D00520834908707E48007878493D
:103F80000978884202D005207E490870704710B534
:103F9000FFF7E1FF7F480078C0F3001018B1FFF78A
:103FA000B7FFFFF7D2FD7B480078C0F3800090B1E7
:103FB00079480078002804DD77480078401E76496B
:103FC000087075480078C82805DB04206D49087022
:103FD00000207149087003207049087010BD6248C4
:103FE0000078002804DD60480078401E5E490870B3
:103FF00000BF00BF704710B563480078C0F30010E1
:1040000038BB58480078401C56490870564800781C
:10401000401C55490870FEF71DFD01281AD1514872
:10402000007851490978884214DB4E4800781428FA
:1040300015DB4D480078122803DC02205349087034
:1040400002E00120514908700020464908704649A5
:10405000087004E000204349087043490870504844
:104060000078401C4E4908704E480078401C4D496D
:104070000870FEF7EFFC012821D149480078494932
:10408000097888421BDB4648007814281CDB454829
:104090000078122807DC3C48007820F00400001D5E
:1040A0003949087005E03848007820F004003649A6
:1040B000087000203A4908703A49087004E000206E
:1040C00037490870374908702F480078C0F300104E
:1040D00000283FD034480078002804DD32480078BA
:1040E000401E3149087030480078B0B92F48007838
:1040F000002804DD2D480078401E2C4908702B480C
:10410000007828B909212A480068FCF738F904E04A
:10411000092127480068FCF72EF926480078002876
:1041200004DD24480078401E2249087021480078A8
:1041300080B921480078002804DD1F480078401E1F
:104140001D4908701C48007828B90F480078C0F352
:10415000401033E05BE044E08E0000209C00002033
:104160009000002091000020920000208C00002090
:10417000990000209B0000208A000020960000206B
:104180009A00002098000020A10000208B00002051
:10419000970000207C090020930000208900002067
:1041A000A4000020A30000209F000020A000002009
:1041B000683503009D0000209E00002040B90120CA
:1041C000B74908700F21B7480068FCF7D8F81EE01F
:1041D0000120B34908700F21B2480068FCF7CFF8FE
:1041E00015E0B1480078C0F3401040B90120AC4957
:1041F00008700F21AB480068FCF7BDF807E001200C
:10420000A74908700F21A7480068FCF7B4F8A74831
:10421000007808BBA6480078F0B9A3480078C0F33E
:10422000801000BBA048007820F010009E49087064
:1042300000BF00209A49087009219E480068FCF7D9
:104240009EF80A219B480068FCF799F80B219948D1
:104250000068FCF794F806E09348007820F010001E
:1042600010309149087010BD9348007810F0010F8C
:1042700014D091480078C0F34000C0438E490978BB
:1042800060F341018C4801700078C0F3400028B110
:104290008948007820F0010087490870704770470E
:1042A000704710B50446FEF7D5FB012828D1834896
:1042B0000078012824D08248007808BB04F132003D
:1042C0008049088001207D49087000207E490870DF
:1042D000084600787D49087000BF002070490870CA
:1042E000092174480068FCF74AF80A2171480068FF
:1042F000FCF745F80B216F480068FCF740F800BF59
:1043000010BD10B504467248006888B37048006854
:10431000804701282CD1FEF79DFB012828D1674852
:104320000078022824D06648007808BB04F13200E7
:1043300064490880022061490870002062490870C1
:10434000084600786149087000BF00205449087091
:10435000092158480068FCF712F80A2155480068FE
:10436000FCF70DF80B2153480068FCF708F800BF74
:1043700010BD002057490978022900D1012070475B
:1043800010B508214B480068FBF7F9FF5248007848
:10439000012808D1082147480068FBF7ECFF0020FE
:1043A0004D49087007E0082142480068FBF7E7FF25
:1043B00001204949087010BD10B53948007801281E
:1043C00008D100203649087009213A480068FBF7F7
:1043D000D2FF06E032480078032802D1002030499D
:1043E000087010BD00203D4908787047002034490E
:1043F00008787047002032490870394908703949F7
:104400000870704732490860704737490870704734
:104410002549097860F38611234A117070473348A3
:104420000078002804DD31480078401E2F490870CC
:1044300000BF00BF704700201B49097811F0010F31
:1044400000D00120704710B504461C4800780228AF
:1044500021D004F132001B4908800220174908705E
:10446000002019490870084600781849087000BFF4
:1044700000200B49087009210E480068FBF77FFFF8
:104480000A210C480068FBF77AFF0B2109480068F5
:10449000FBF775FF00BF10BD15490870704700009D
:1044A0008800002064350300A1000020A000002047
:1044B0009E00002068350300A20000208A00002032
:1044C00098000020940000208C000020990000201B
:1044D000A80000208B000020AC00002096000020E7
:1044E000900000209B0000209C000020A3000020E2
:1044F000A500002070B503460024142B01DB601ECC
:1045000070BD082902DB6FF00100F9E70120884047
:10451000C4B27AB1142B01DB002000E01846A74D8D
:10452000285C2043142B01DB002500E01D46A34E30
:1045300070550EE0142B01DB002000E018469F4D63
:10454000285CA043142B01DB002500E01D469B4E98
:1045500070550120D4E770B50446FF2504B9002545
:104560002A46142195482EF0BEFC012C46D100BFEE
:1045700008F096FA002840D1002211461046FFF7B5
:10458000B9FF002206210920FFF7B4FF002207210E
:104590000920FFF7AFFF002206210B20FFF7AAFF3B
:1045A000002207210B20FFF7A5FF002206210D2086
:1045B000FFF7A0FF002207210D20FFF79BFF00223D
:1045C00006210F20FFF796FF002207210F20FFF79B
:1045D00091FF002206211120FFF78CFF0022072106
:1045E0001120FFF787FF002206211320FFF782FF2B
:1045F000002207211320FFF77DFF00BF70BD10B51B
:104600000020FFF7A8FF6E480021016001716B4890
:1046100000F0E5FE69486A4908601420087110BD81
:1046200070B505460C46142C04DC22462946634826
:104630002EF014FC70BD70B505460C46142D02DB3F
:104640004FF0FF3070BD08F030FA08BB142D01DBCD
:10465000002000E028465949085C00F08000142D35
:1046600001DB002100E02946544A5054142D01DB9F
:10467000002000E028465149085C04F07F0108430F
:10468000142D01DB002100E029464C4A50542EE055
:10469000E007420E06212846FFF72CFF04F0020037
:1046A000020105212846FFF725FF04F004008200DF
:1046B00004212846FFF71EFF04F04000C21003212A
:1046C0002846FFF717FF04F02000C21002212846F9
:1046D000FFF710FF04F01000C21001212846FFF779
:1046E00009FFC4F3C00200212846FFF703FF0120A1
:1046F000A8E70246142A02DB4FF0FF307047142A65
:1047000001DB002000E010462C4B19540120F5E796
:1047100030B50346142B02DB4FF0FF3030BD142BB5
:1047200001DB002000E01846244C205C8843142B59
:1047300001DB002400E01C46204D2855142B01DB32
:10474000002000E018461D4C205C02EA01042043D2
:10475000142B01DB002400E01C46184D28550120D5
:10476000DCE70246142A02DB4FF0FF307047142AC0
:1047700001DB002000E01046104B19540120F5E742
:1047800010B502460020142A01DB002300E0134686
:104790000A4CE35C01248C40234200D0012010BD70
:1047A0000146142901DB002200E00A46034B985C15
:1047B000704701461420087000487047B41000206C
:1047C000AD00002010B50020424908704249088021
:1047D000424908804249087042490880424908809D
:1047E0003E4800F008FE10BD10B540480078C0F308
:1047F000800000B910BD03F0B5F9012804D10020F4
:10480000344908703649087000F0E1FD01282DD1C7
:104810003048007850BB31480088304908802E4825
:1048200000880988884209D12D480078401C2C490D
:104830000870294800882B49088004E00020284996
:1048400008702849088026480078322806DD254867
:1048500000882549088001201E4908701F480088EB
:104860001D490880084600881F49088000BFC1E72D
:104870000020704700207047014600201A4A128825
:104880004A4000D10120704717480088704710B592
:10489000024600200023144C238843FA02F404EA61
:1048A0000103D8B210BD00200A49087870470246BB
:1048B0000020002111430C4B1B880B408B4201D17F
:1048C000084600E000207047044800880649088038
:1048D00070470000B2000020B4000020B6000020A5
:1048E000B8000020BA000020BC0000207C09002095
:1048F00010B50020434908704349086043490870D7
:1049000043490860434800F06DFD434800F076FDE0
:10491000424800F076FD10BD404800787047F0280E
:1049200003D1F0213B4A11700AE03749096811B9F7
:104930003849087004E034490968095C354A117047
:104940003749097A79B90C280DD00D280BD02E499A
:10495000096819B900212F4A117004E02A49096831
:1049600009782C4A1170704700202749096811B94D
:104970002849087804E024490968264A1278885CA6
:1049800070472049087800211E4A1170704730B9DD
:104990002249097819B101211A4A117002E0002157
:1049A000184A11701A49096811B91C49087008E0C1
:1049B00016490978814204DD15490968095C174ADE
:1049C000117070471048006810B91348007870479C
:1049D00000210AE00C480068405C0F4A12789042BF
:1049E00001D10846F3E7481CC1B2FF29F2DB0020E1
:1049F000EDE7054908607047054A1060034A1170E9
:104A000070470000C3000020C4000020CC0000203C
:104A1000C8000020C0000020C1000020C20000200B
:104A2000531B002070B59CB00024002500201B9073
:104A3000642101A82EF081FA0020009002F0D0F944
:104A40000646642101A82EF078FA5A208DF8040059
:104A5000A5208DF80500A41C01A908191422F84905
:104A600009682EF0FBF9143401A8F64909680978A1
:104A70000155641CF448007830B9F1201B9001A85E
:104A80009DF86C10015519E0EE480068007828B1D7
:104A900001A8EE490968097801550FE0FFF771FF99
:104AA000012805D101A8E94909680978015505E0FF
:104AB00000201B9001A89DF86C100155601CC4B229
:104AC000E148007840B907F079FF80B21A90E048D9
:104AD0000068BDF86810018101A82044DC4909681C
:104AE0000A6802604A6842600989018104F10A008B
:104AF000C4B2D8480068007800909DF8000010F01B
:104B0000010F05D09DF8000000F0FE00009004E0C9
:104B10009DF8000040F001000090CF480078012887
:104B200005D19DF8000040F02000009004E09DF8C1
:104B3000000020F0200000909DF8000040F04000B0
:104B4000009001A89DF800100155601CC4B22146D8
:104B500001A82DF03EFD054601A80555601CC4B214
:104B6000214601A8FEF721FDB848006800781B9097
:104B70009DF86C0000F0C000C02801D11CB070BDD1
:104B8000B24800680021017000BFF7E72DE9FC5F23
:104B9000804608F10205002400260027A146A2460F
:104BA000A34600200190AD48006800210170AC4888
:104BB00000680180AB4800680180AB480068017064
:104BC000AA480068016041600172A948006801605C
:104BD0004160A2480068295D0170A048006890F912
:104BE000000086B206F0F70670B29C4909680870AA
:104BF00006F01000102801D14FF0010A4846FDF7D9
:104C0000C1FD601CC4B22819954909680088088054
:104C10009348006800880012914909680880A01C28
:104C2000C4B229198F480068098801808D4800683E
:104C30000088C0F30E008B4909680880A01CC4B22C
:104C400089480068295D0170601CC4B2864800680C
:104C50000778F02F01D14FF0010BF12F02D1012085
:104C600079490870F22F01D10120019028197F495C
:104C7000096802680A6042684A60007A087204F1B2
:104C80000900C4B228197A49096802680A604068B4
:104C9000486004F10800C4B2BBF1010F11D175489E
:104CA000734909680988018073487149096849880E
:104CB000018072486E49096889880180002008F0E7
:104CC00031FB0198012809D16D48694909680988B3
:104CD00001806C486649096849880180634800681A
:104CE00000786949087061480068B0F80500A1F8CB
:104CF00005005E480068B0F80700A1F807005B48AF
:104D00000068B0F80300A1F8030058480068B0F844
:104D10000100A1F80100FEF718FD5C4900902DF09C
:104D2000FEFDBAF1010F07D14D480068008800F57B
:104D300080404B4909680880B9F1010F07D1484804
:104D40000068008800F50040454909680880BDE812
:104D5000FC9F4F49086070474449086070474449C8
:104D6000086070473A49086070472DE9F0470546EA
:104D70002C464FF000090027B84600264548007829
:104D800010B9002044490870022042490870424886
:104D9000007810B1012852D128E020785A2810D18B
:104DA00020783E493C4A127888543B480078401CA1
:104DB0003949087000203A4908701A2039490870AA
:104DC00013E02078552810D120783449324A1278DF
:104DD000885431480078401C2F4908700020304921
:104DE0000870314800782F4908707EE02C48007820
:104DF000F8B92078A5280AD120782849264A1278BF
:104E0000885425480078401C2349087010E0207819
:104E1000AA280DD1207821491F4A127888541E48AB
:104E20000078401C1C4908701F4800781D49087014
:104E300003E000201849087000BF00BF55E035E0CE
:104E4000D4000020DC00002008010020D800002051
:104E5000FC0000200C01002009010020EC000020D3
:104E6000E4000020E8000020F0000020F400002012
:104E700000010020BA090020BC090020C009002060
:104E8000C2090020C40900208A1B0020C609002096
:104E9000F80000203501002028010020C810002063
:104EA000380100203901002034010020F948007841
:104EB000502816DCF848007858B92078F749097866
:104EC000502901DB002101E0F4490978F44A5054EB
:104ED00000E000BF00BFF1480078401CEF490870B7
:104EE00002E00020ED49087000BF00BFE9480078EB
:104EF000EA490978884252DCE7480078F0BBE84884
:104F000000785A283ED1E6484078A5283AD1E148B1
:104F10000078012801DA002002E0DE480078401E17
:104F2000DF490E5C1921DE482DF053FB0746B742DE
:104F300006D1DC48007820F080008030D949087024
:104F4000D8480078C0F3801068B91921D4482DF0F2
:104F500032FB8046B04506D1D248007820F0800070
:104F60008030D0490870CF4800780121B1EBD01FC4
:104F70000FD1C8480278CA49CB4800E00AE02DF0BA
:104F80006DFF06E0C948006818B1C548C7490968FF
:104F9000884700E000BF00BF0020C0490870BDE89E
:104FA000F08710B50020C2490870BE490870C14999
:104FB0000870BA490870C0490870C0490870C049F3
:104FC0000860C0490870C0490880C04908800220B4
:104FD000BF4908705021B2482DF08DFF5021B248D2
:104FE0002DF089FF0020BB490870B0490860AD482A
:104FF000007820F00400001DAA490870B64A01217B
:105000000320FDF7B6FFB548B54908600020B54953
:105010000870B5490860B5490860B54800210160CD
:1050200041600181B34801604160B148FFF79AFED9
:10503000B048FFF794FEB048FFF78EFEAF48FFF789
:1050400088FE0020AE490880934908709149087095
:1050500010BD9449097860F30411924A11707047A9
:1050600090480078C0F300107047904A1060994A49
:1050700011707047944908880021934A1180704745
:1050800010B50024874800780121B1EBD01F24D14E
:105090009C48006828B19C48006810B18248FFF71E
:1050A00075FD8048007820F00100401C7D490870A3
:1050B0000846007820F00200801C0870084600783E
:1050C00020F0800008708F48006830B17D4800787B
:1050D00020F00100401C7B49087072480078C0F342
:1050E000401000B110BD89480078C0F3001040B1F5
:1050F00077480078002804DD75480078401E744920
:10510000087082480078C0F38000B0B16A48007827
:1051100032280BDA68480078401C674908706148FB
:10512000007820F040005F49087006E05D48007894
:1051300020F0400040305B49087074480078C0F3AC
:10514000C00000287ED071480078C0F3800000289D
:1051500078D15448007810F0010F31D102F002FDEF
:1051600001280EDC6A480078C0F3800048B10020B6
:105170004F4908704F48007820F001004D490870F1
:1051800027E002F0EFFC58B90020494908705C495B
:1051900008804848007820F001004649087018E06F
:1051A0004448007810F0010F13D141480078401CAA
:1051B0003F49087052480088401C5149088008E067
:1051C00000203B4908703B48007820F00100394935
:1051D000087002F0C7FC18B94E480078012826D1A3
:1051E00030480078C0F30010A0B12E480078C0F31A
:1051F000C00078B12B48007820F0080029490870D9
:105200002F48006898B12D4801782D480068FDF7B7
:1052100059FF0CE02348007820F0080008302149AD
:1052200008702F48006810B12D48006880471D485D
:10523000007810F0010F6FD11A480078C0F34000D9
:1052400030B300E093E01A480078142190FBF1F2AB
:1052500001FB1200E8B916480078D0B11548007873
:1052600010F0010F6AD101F0BBFD012802D001F05E
:10527000B7FD08B9F02400E03C240D480078A042B6
:105280004BD11148008820B901200F49088055E012
:1052900051E053E0390100203801002028010020AE
:1052A000C810002036010020181100203001002015
:1052B0001D010020370100202901002022010020CB
:1052C00024010020D0000020200100201E01002029
:1052D00035010020340100206B4D0000254A0000FC
:1052E0002C010020090100200C01002010010020E9
:1052F000681100203C0100208A1B0020931B002025
:105300003A010020E4000020E80000207C09002091
:10531000400000208D09002018E05448007820F05B
:105320000100401C514908705148008851490880CB
:1053300001F01FFD02E000204F4908704F4800783F
:1053400020F00400001D4D49087005E04B4800782E
:1053500020F004004949087048480078C0F3C000B4
:1053600028B14648007820F00100444908703F48C1
:10537000007810F0010F17D0052141480068FAF7B6
:10538000FAFF3B4800883B490988401A642810DB33
:105390003648007820F0010034490870052138486B
:1053A0000068FAF7ECFF04E0052135480068FAF7D9
:1053B000E6FF00BF96E63149097860F345112F4AB0
:1053C000117070472D480078C0F3401070470020DE
:1053D0002A490978C1F3800101B9012070472949A0
:1053E000086070472849086070472849086070477E
:1053F00027490860704727490860704726490860B8
:105400007047264908607047254908607047254A5B
:105410001060254A1170704724490860704724497C
:10542000086070471548007820F0020013490870A2
:1054300070472049086070471F4908607047002086
:105440000E490978C1F3400101B1012070471B49A1
:10545000087070471A490870704700201949088081
:1054600005490870704718480088704737010020C8
:105470007E0900201E0100201D01002036010020B1
:105480006C350300D4000020D8000020E400002088
:10549000EC000020E8000020F0000020DC000020EC
:1054A000040100202401002022010020100100201E
:1054B0000C01002014010020180100200801002028
:1054C00009010020200100203A01002070B50024CD
:1054D0000025FE48C478057945EA0420FC49088087
:1054E0000846008847F60171884213D101F078FC24
:1054F00048B9092003F038F8F648007820F0080091
:105500000830F4490870F348007820F02000F14991
:1055100008703AE0EE480088A0F5FE41023917D144
:1055200001F05EFC02280BD1EA480078C0F380004D
:1055300030B1E848007820F00200801CE54908708E
:10554000E448007820F020002030E24908701CE098
:10555000DF480088A0F5FE41033910D1DD4800780E
:1055600020F010001030DB490870012005F016FD16
:10557000D848007820F02000D649087005E0D548CA
:10558000007820F02000D34908700020D04908801E
:1055900070BD70B505462C460026CF480078D8B9B6
:1055A00020785A280ED13221C8482DF0A4FC20784A
:1055B000C649C94A12788854C7480078401CC64971
:1055C000087089E03221C1482DF095FC0020C249C5
:1055D0000870C24908707FE0BF480078012817D1E1
:1055E0002078A5280AD12078B849BB4A1278885477
:1055F000B9480078401CB84908706DE03221B348C2
:105600002DF079FC0020B4490870B449087063E0BB
:10561000B148007802280CD12178AC48AE4A127803
:105620008154AE480170AC480078401CAA4908700B
:1056300052E0A9480078032831DBA7480178A74841
:105640000078801C81422ADAA448007832281CDACB
:105650009E4800785A280ED19C484078A5280AD147
:1056600020789A499C4A127888549B480078401CBC
:105670009949087030E0322194482DF03CFC00201C
:10568000954908709549087026E032218F482DF021
:1056900032FC002090490870904908701CE0217885
:1056A0008A488D4A127881548B48017887482CF0BB
:1056B00082FF0646854888490978405CB04204D09C
:1056C000322182482DF017FC01E0FFF7FFFE002099
:1056D000824908708049087070BD10B5002080496B
:1056E00008707D4908707D49087032217D482DF091
:1056F00002FC7D48002101607C4801707C480180EB
:105700007C4801807C48018032217C482DF0F3FBED
:1057100032217B482DF0EFFB00207A4908707A4A4D
:105720000121FDF726FC00206949088069490870BD
:1057300010BD6849097860F38201664A11707047AC
:105740002DE9F041002700246C48C078222872D04F
:105750000EDC162867D006DC00286DD0102863D038
:1057600011286AD10AE2182868D02028F9D110E05F
:1057700032280CD006DC29287ED02A287DD02B2880
:10578000EFD1FAE1332803D0FF28EAD1F9E1F9E1BA
:10579000F8E15A484079070258488079384487B27E
:1057A0005648C07998B903F085FA04F01BFC4FF411
:1057B000E16100FB01F64FEAE67006EB5040C513CD
:1057C00001D4284600E06842504908802AE04B484E
:1057D000C079012811D104F005FC4FF4E16100FB10
:1057E00001F64FEAE67006EB5040C51301D4284697
:1057F00000E068424549088014E04048C07902282A
:1058000010D104F0EFFB4FF4E16100FB01F64FEA29
:10581000E67006EB5040C51301D4284600E068420C
:105820003A490880AEE100BF2A480078C0F3400042
:1058300028B1374C04E0A3E1A1E19DE107E1354C3B
:105840002948007810F0010F06D063792279E178B9
:105850000020FBF702FE05E0A378627821780020A3
:10586000FBF7FBFD20480078C0F3400048B16379A6
:105870002279E178012001E0F9E01CE1FBF7EDFD80
:1058800005E0A378627821780120FBF7E6FD164851
:105890000078C0F3800030B163792279E17802208A
:1058A000FBF7DBFD05E0A378627821780220FBF7A7
:1058B000D4FD0D480078C0F3001030B1637922792F
:1058C000E1780320FBF7C9FD2CE025E0A4110020BE
:1058D0005401002053010020450100204601002012
:1058E0004401002072110020470100204B010020DC
:1058F0004C0100204E010020500100200812002021
:10590000D611002052010020935500005C010020B8
:105910009D360300F7AE0300A37862782178032058
:10592000FBF79BFDF7484078C0F3400030B1637946
:105930002279E1780820FBF790FD05E0A3786278F2
:1059400021780820FBF789FDEE484078C0F38000FD
:1059500030B163792279E1780920FBF77EFD05E01B
:10596000A378627821780920FBF777FDE548007875
:10597000C0F3801030B163792279E1780520FBF71C
:105980006CFD05E0A378627821780520FBF765FDC2
:10599000DC4800780121B1EBD01F06D16379227970
:1059A000E1780620FBF759FD05E0A37862782178BD
:1059B0000620FBF752FDD3484078C0F3401018B1E1
:1059C000012006F0BEFA02E0002006F0BAFACD4847
:1059D000807810F0010F10D00921CB480068FAF749
:1059E000CAFC0F21C9480068FAF7C5FCC84800780E
:1059F00020F00100401CC6490870C248807810F0B1
:105A0000010F0FD10921C0480068FAF7B8FC0F2137
:105A1000BE480068FAF7B3FCBD48007820F00100EA
:105A2000BB490870B748C07810F0010F07D0B948DB
:105A300043790279C1780420FBF70FFD06E0B548F1
:105A40008378427801780420FBF707FD9AE0B2489A
:105A5000007810F0030004D0012803D0022803D1FD
:105A600001E002E001E000E000BF00BF8AE0AB48D7
:105A7000007810F0010F06D000BF0721A24800688F
:105A8000FAF779FC06E000BF07219F480068FAF7A3
:105A900076FC00BFA1480078C0F3400028B1062181
:105AA0009F480068FAF767FC04E006219C480068FC
:105AB000FAF765FC66E09B48007810F0010F03D010
:105AC000012007F0CEF902E0002007F0CAF995485E
:105AD0000078C0F3400018B1012007F0D2F902E0CD
